:1000000000308A005B28000026308400831300083B
:10001000031917280630F800F701F70B0D28F80B25
:100020000C287B30F700F70B1328800B0A280034CC
:10003000831605148312051C2D28A108031D2D28E5
:100040002008313C031C2D280A30A6000420013072
:10005000A0070318A10A2D2818286F2883168514D5
:100060008312851C4528A108031D3A282008023C5C
:10007000031845280A30A60004200130A0020030F1
:10008000031C0130A10245282E2874281030A70037
:10009000F701FA01A40CA30C031C54282508F70748
:1000A0000318FA0A2608FA07FA0CF70CF90CF80CF0
:1000B000A70B4A288128840183131F30830507304A
:1000C0009F001930A000A101A201A20122080F3C4B
:1000D000031C942883160514831205181828831608
:1000E0008514831285182E28831686018312220810
:1000F00086002108A4002008A300A6010A30A5005C
:1001000046287908A4007808A3007908A500A50A64
:10011000A50303198F28FF30A60004208828230890
:0C012000A6000420A20A662865286300DF
:02400E00623F0F
:00000001FF
;PIC16F628A
