:1000000004308A00772C0000FF00030E8301A1005A
:100010000A08A0008A010408A2007708A300780853
:10002000A4007908A5007A08A600831383128C30F7
:100030008400801C1D288C182E2822088400230888
:10004000F7002408F8002508F9002608FA0020081F
:100050008A00210E8300FF0E7F0E09008A110A120A
:1000600039280A108A100A11820728340C34013406
:100070000634831606100130831286060B30910079
:100080008C108A110A121D288C20C421BD1234360E
:1000900064000A2B6F36F430E732BD123117353366
:1000A00076003B308400831300080319642806306F
:1000B000F800F701F70B5A28F80B59287B30F700A6
:1000C000F70B6028800B57280800420EF039F70024
:1000D0000F30080577048800000008140330F7008B
:1000E000F70B7028081008000808F700080E0F39F1
:1000F000F800080088100F3083160805F0388800D3
:100100008312081500000814000074207808C2004B
:100110000810000008148C288D280000742078082E
:10012000C10008100F308316080588008312420EA4
:10013000F700F030F70577084104F8007808C100AF
:10014000C11B7B283F1C88103F1888140000081131
:1001500000000810400EC1000F30C1054108C20068
:10016000652040080F39C100C200652008000F302B
:10017000831608058800081088100811831288105B
:10018000081108100F30BB0051200130AD002D08C0
:10019000033C031CD3280330C20065200530BB009C
:1001A0005120AD0AC7280230C2006520AD012D08DC
:1001B000033C031CE4282D083120AE00BF012E08AB
:1001C000C0007A20AD0AD7288A110A129C2C8E30E2
:1001D000F7002E08F8002D08F900FA01F808031DB1
:1001E000FB287908F800F9010830F702F808031D28
:1001F000FB28F70103290310F81B0229F90DF80D5C
:10020000F703FB28F8138A110A12B32C3A080319D2
:100210007629C2003E0803197629C2070318172958
:100220007F30C202031C7629031976291B298130ED
:10023000C207031876294208F700F801F901FA010C
:100240003B08C600C6173C08C5003D08C40018306E
:10025000C200C301441C44294108FA07031C362983
:10026000F90A031D3629F80A0319C3174008F907CC
:10027000031C3D29F80A0319C3173F08BC00BC172B
:100280003C08F8070318C317C30DF80CF90CFA0C57
:10029000C60CC50CC40C0310C20B29290130F7078A
:1002A00003187629F81B5B29C60DFA0DF90DF80D18
:1002B000F70303197629C61F6C29FA0A031D6C2956
:1002C000F90A031D6C29F80A031D6C29F80CF90CB6
:1002D000FA0CF70A031976293B08C3003F08C30646
:1002E000C31F7429F8177A29F8137A29F701F8013E
:1002F000F901FA01080031080319402ABD00350848
:100300000319402ABD02031C8A297F30BD07031848
:10031000402A90298130BD02031C402A0319402A3B
:100320003D08F700F801F901FA01BC013208BB00F1
:10033000BB173308BA003408B9001930BD003808BB
:10034000B9020318B3290130BA020318B329BB025A
:100350000318B329BC020318B329BC0ABB0ABA0AA2
:100360003808B907E5293708BA020318CE29013041
:10037000BB020318CE29BC020318CE29BC0ABB0A53
:100380003708BA073808B907031CE529BA0A031D5C
:10039000E529BB0A031DE529BC0AE5293608803892
:1003A000BB020318E4290130BC020318E429BC0A8B
:1003B00036088038BB073708BA07031CC229BB0AB6
:1003C000031DC229BC0AC2297A14BD0BE829F329EE
:1003D0000310B90DBA0DBB0DBC0D0310FA0DF90DCC
:1003E000F80DBE0D9F293E1CFB290310F80CF90CDB
:1003F000FA0CBE0CFE29F7030319402ABE1B272A5C
:100400000310B90DBA0DBB0DBC0D3808B9020318A5
:10041000132A0130BA020318132ABB020318132A45
:10042000BC02031C362A3708BA0203181E2A013000
:10043000BB0203181E2ABC02031C362A3608803869
:10044000BB020318272A0130BC02031C362AFA0A11
:10045000031D362AF90A031D362AF80A031D362A17
:10046000F70A0319402AF80CF90CFA0C3208BD00FF
:100470003608BD06BD1F3E2AF817442AF813442A41
:10048000F701F801F901FA018A110A12D72C3A088A
:100490000C3A0319522A063A03195A2A023A031946
:1004A000702A752ABF010130C0007A200230BB00DB
:1004B00051207B2A0130BB000230BC003C0B612A7A
:1004C000642A4030BD00652ABD0101303B02BD07F2
:1004D0003D088038BE00BF013E08C0007A207B2A5C
:1004E000BF011030C0007A207B2A0130BF003A08DB
:1004F000C0007A207B2A0800831603178C170C147F
:10050000000000000318AB2A83120C087F39031384
:10051000AE0003170D080313AF0003170F080313F2
:10052000B0002E08BA0047222F0803178D000313CE
:10053000300803178F0083168C170C14000000007E
:1005400083120313AD0BA52AA82A83160317AB2A1F
:10055000C92A8316031783120C0D0E0D7F3903135E
:10056000AE0003170D080313AF0003170F080313A2
:10057000B0002E08BA0047222F0803178D0003137E
:10058000300803178F008D0A03198F0A0313AD0B70
:100590007C2A0800B5010408B4003510831B35140B
:1005A000AE1FDA2AB417341EB40AAD09AE09AD0A7B
:1005B0000319AE0A2E0EF038B000B007E23EB100CB
:1005C000323EB3002E080F39B107B107B307E93E39
:1005D000B200B207B2072D0E0F39B207B307B20D42
:1005E000B30DB309B30D2D080F39B307B00D0730A4
:1005F000AF000A30B307B203031CFA2AB207B103F3
:10060000031CFE2AB107B003031C022BB007AF0383
:10061000031C062B2F30840083130730340534135A
:1006200084033405031D1B2B341A840A341A1B2B34
:100630002030F700382B84073330040203193417B5
:100640000008F700031D2C2B341B2C2B341A462BCF
:10065000B4192C2B2030372BB41F342B2D30F7003E
:1006600084033413B413382BB41534123030F70725
:10067000AE010408AD002E10831B2E147708BA00BB
:1006800047222D08840083132E188317840A341FF1
:100690001C2B8A110A12F02CF701F801F901FA015A
:1006A000C201C301C401C501410840043F043E0426
:1006B00003198A2B2030C6000310BA0DBB0DBC0DE8
:1006C000BD0DC20DC30DC40DC50D41084502031D6E
:1006D000732B40084402031D732B3F084302031D84
:1006E000732B3E084202031C842B3E08C2023F08C3
:1006F000031C3F0FC3024008031C400FC402410803
:10070000031C410FC5020314F70DF80DF90DFA0D86
:10071000C60B5C2B42308400831308000408B2002F
:100720003108B4000319AD2B3008BD002F08BC0000
:100730002E08BB002D08BA00C101C0012030BF0047
:100740008230BE0006217A08B0007908AF00780830
:10075000AE007708AD00B40B942B3008BD002F0815
:10076000BC002E08BB002D08BA003A08B63CBA00FF
:10077000FA013B08BE00BB170310BB0CBC0CBD0C40
:10078000FA0CF90CF80CF70CBA0BBC2BBE1FD32BD0
:10079000F709F809F909FA09F70A0319F80A031918
:1007A000F90A0319FA0A7A08B0007908AF00780844
:1007B000AE007708AD00B01FEA2BB203B216AD0948
:1007C000AE09AF09B009AD0A0319AE0A0319AF0AA1
:1007D0000319B00A3B30B9009A30B800CA30B700EC
:1007E000B6010A30B40031080319B20A3008BD005E
:1007F0002F08BC002E08BB002D08BA003908C10024
:100800003808C0003708BF003608BE004C23000877
:10081000AD00840A0008AE00840A0008AF00840A14
:100820000008B000FD308407F708031D2A2C310AA8
:10083000340203192A2C320803192C2C0F393402E4
:100840000319242C03185C2CB21B5C2C321B2C2C9F
:100850002030582C2030B205B21E3A2CB21231088A
:10086000031DB2037708B2002D30BA0047223208C8
:10087000F700B20131083402031D482C7708B2009A
:100880002E30BA0047223208F7002030B20500307F
:100890003030B21E582CB2123108031DB203770853
:1008A000B2002D30BA0047223208F700B2013030D2
:1008B000F7077708BA0047223908BD003808BC009E
:1008C0003708BB003608BA00C101C001BF010A30B9
:1008D000BE004C237A08B9007908B8007808B70040
:1008E0007708B600B40BF62B8A110A12072D840183
:1008F00083131F30830583161F149F141F159F1128
:1009000007309C000030F8000538831292007C30DC
:10091000831692008C14C03083128B0483161F1030
:100920009F141F159F151F1383121F179F178316E0
:100930009F1783121F14B7280030F8001F08C7390B
:1009400078049F001E30BB0051201F151F19A62CD4
:1009500083161E088312A7001E08A8002808AE00F0
:100960002708AD00E728BD01BC012030BB00813065
:10097000BA007A08C1007908C0007808BF0077087B
:10098000BE0006217708AD007808AE007908AF00F8
:100990007A08B000B4007908B3007808B20077088C
:1009A000B100B801B701B6018930B5007B297A08DA
:1009B000AC007908AB007808AA007708A900443099
:1009C00003178D0000308F00031005300313AD00B6
:1009D0007C22023084002808AE002708AD00CA2A15
:1009E000493003178D0000308F00031009300313C6
:1009F000AD007C22893084002C08B0002B08AF00A9
:100A00002A08AE002908AD000530B1008E2B7630E3
:0E0A1000BA004722C830BB005120AE2C630054
:02400E00323F3F
:00000001FF
;PIC16F877A
;CRC=B2C2  CREATED="10-jul-12 23:38"
