:1000000004308A003F2C00000A108A100A1182076F
:1000100028340C34013406348C20C421BD1234360B
:1000200064000A2B6F36F430E732BD1231173533D6
:100030007600353084008313000803192C2806301D
:10004000F800F701F70B2228F80B21287B30F70086
:10005000F70B2828800B1F2808003C0EF039F7000A
:100060000F30080577048800000008140330F700FB
:10007000F70B3828081008000808F700080E0F3999
:10008000F800080088100F3083160805F038880043
:10009000831208150000081400003C207808BC00FA
:1000A0000810000008145428552800003C20780847
:1000B000BB0008100F3083160805880083123C0E21
:1000C000F700F030F70577083B04F8007808BB002C
:1000D000BB1B4328391C88103918881400000811EC
:1000E000000008103A0EBB000F30BB053B08BC00F7
:1000F0002D203A080F39BB00BC002D2008000F301E
:1001000083160805880008108810081183128810CB
:10011000081108100F30B50019200130A70027087A
:10012000033C031C9B280330BC002D200530B50088
:100130001920A70A8F280230BC002D20A70127080C
:10014000033C031CAC2827080420A800B901280898
:10015000BA004220A70A9F288A110A12572C8E3013
:10016000F7002808F8002708F900FA01F808031D2D
:10017000C3287908F800F9010830F702F808031DD0
:10018000C328F701CB280310F81BCA28F90DF80D76
:10019000F703C328F8138A110A126E2C34080319C6
:1001A0003E29BC00380803193E29BC070318DF2884
:1001B0007F30BC02031C3E2903193E29E32881300D
:1001C000BC0703183E293C08F700F801F901FA01C1
:1001D0003508C000C0173608BF003708BE00183009
:1001E000BC00BD013E1C0C293B08FA07031CFE287D
:1001F000F90A031DFE28F80A0319BD173A08F90782
:10020000031C0529F80A0319BD173908B600B617EB
:100210003608F8070318BD17BD0DF80CF90CFA0CD9
:10022000C00CBF0CBE0C0310BC0BF1280130F7074B
:1002300003183E29F81B2329C00DFA0DF90DF80DFE
:10024000F70303193E29C01F3429FA0A031D342974
:10025000F90A031D3429F80A031D3429F80CF90C96
:10026000FA0CF70A03193E293508BD003908BD0606
:10027000BD1F3C29F8174229F8134229F701F8015C
:10028000F901FA0108002B080319082AB7002F0802
:100290000319082AB702031C52297F30B707031835
:1002A000082A58298130B702031C082A0319082A92
:1002B0003708F700F801F901FA01B6012C08B5007A
:1002C000B5172D08B4002E08B3001930B700320856
:1002D000B30203187B290130B40203187B29B5024D
:1002E00003187B29B60203187B29B60AB50AB40A9B
:1002F0003208B307AD293108B4020318962901303A
:10030000B50203189629B60203189629B60AB50A4B
:100310003108B4073208B307031CAD29B40A031D22
:10032000AD29B50A031DAD29B60AAD2930088038BC
:10033000B5020318AC290130B6020318AC29B60A7D
:1003400030088038B5073108B407031C8A29B50A7C
:10035000031D8A29B60A8A297A14B70BB029BB294A
:100360000310B30DB40DB50DB60D0310FA0DF90D54
:10037000F80DB80D6729381CC3290310F80CF90CC7
:10038000FA0CB80CC629F7030319082AB81BEF2981
:100390000310B30DB40DB50DB60D3208B30203183A
:1003A000DB290130B4020318DB29B5020318DB296D
:1003B000B602031CFE293108B4020318E6290130F5
:1003C000B5020318E629B602031CFE29300880385E
:1003D000B5020318EF290130B602031CFE29FA0A00
:1003E000031DFE29F90A031DFE29F80A031DFE2933
:1003F000F70A0319082AF80CF90CFA0C2C08B700B4
:100400003008B706B71F062AF8170C2AF8130C2A6B
:10041000F701F801F901FA018A110A12922C340845
:100420000C3A03191A2A063A0319222A023A031926
:10043000382A3D2AB9010130BA0042200230B50005
:100440001920432A0130B5000230B600360B292AA4
:100450002C2A4030B7002D2AB70101303502B707EA
:1004600037088038B800B9013808BA004220432A5A
:10047000B9011030BA004220432A0130B9003408D3
:10048000BA004220432A0800831603178C170C1465
:10049000000000000318732A83120C087F3903132D
:1004A000A80003170D080313A90003170F0803136F
:1004B000AA002808B4000F22290803178D0003138F
:1004C0002A0803178F0083168C170C1400000000F5
:1004D00083120313A70B6D2A702A83160317732A3E
:1004E000912A8316031783120C0D0E0D7F39031307
:1004F000A80003170D080313A90003170F0803131F
:10050000AA002808B4000F22290803178D0003133E
:100510002A0803178F008D0A03198F0A0313A70BEC
:10052000442A0800AF010408AE002F10831B2F14CB
:10053000A81FA22AAE172E1EAE0AA709A809A70A4D
:100540000319A80A280EF038AA00AA07E23EAB0059
:10055000323EAD0028080F39AB07AB07AD07E93EC7
:10056000AC00AC07AC07270E0F39AC07AD07AC0DDC
:10057000AD0DAD09AD0D27080F39AD07AA0D073038
:10058000A9000A30AD07AC03031CC22AAC07AB03B9
:10059000031CC62AAB07AA03031CCA2AAA07A9037D
:1005A000031CCE2A29308400831307302E052E1316
:1005B00084032E05031DE32A2E1A840A2E1AE32A29
:1005C0002030F700002B84072D30040203192E176A
:1005D0000008F700031DF42A2E1BF42A2E1A0E2BF6
:1005E000AE19F42A2030FF2AAE1FFC2A2D30F70066
:1005F00084032E13AE13002BAE152E123030F707E6
:10060000A8010408A7002810831B28147708B40049
:100610000F2227088400831328188317840A2E1FAB
:10062000E42A8A110A12AB2CF701F801F901FA0148
:10063000BC01BD01BE01BF013B083A0439043804C6
:100640000319522B2030C0000310B40DB50DB60DA8
:10065000B70DBC0DBD0DBE0DBF0D3B083F02031D08
:100660003B2B3A083E02031D3B2B39083D02031D7C
:100670003B2B38083C02031C4C2B3808BC023908C1
:10068000031C390FBD023A08031C3A0FBE023B0897
:10069000031C3B0FBF020314F70DF80DF90DFA0D03
:1006A000C00B242B3C308400831308000408AC00EA
:1006B0002B08AE000319752B2A08B7002908B600CD
:1006C0002808B5002708B400BB01BA012030B900E2
:1006D0008230B800CE207A08AA007908A9007808EC
:1006E000A8007708A700AE0B5C2B2A08B7002908E2
:1006F000B6002808B5002708B4003408B63CB4009A
:10070000FA013508B800B5170310B50CB60CB70CD4
:10071000FA0CF90CF80CF70CB40B842BB81F9B2BBC
:10072000F709F809F909FA09F70A0319F80A031988
:10073000F90A0319FA0A7A08AA007908A9007808C0
:10074000A8007708A700AA1FB22BAC03AC16A70914
:10075000A809A909AA09A70A0319A80A0319A90A35
:100760000319AA0A3B30B3009A30B200CA30B10074
:10077000B0010A30AE002B080319AC0A2A08B700F2
:100780002908B6002808B5002708B4003308BB00C4
:100790003208BA003108B9003008B8001423000844
:1007A000A700840A0008A800840A0008A900840A97
:1007B0000008AA00FD308407F708031DF22B2B0A5E
:1007C0002E020319F22B2C080319F42B0F392E02D9
:1007D0000319EC2B0318242CAC1B242C2C1BF42BFE
:1007E0002030202C2030AC05AC1E022CAC122B0883
:1007F000031DAC037708AC002D30B4000F222C0889
:10080000F700AC012B082E02031D102C7708AC005A
:100810002E30B4000F222C08F7002030AC05003039
:100820003030AC1E202CAC122B08031DAC03770813
:10083000AC002D30B4000F222C08F700AC01303092
:10084000F7077708B4000F223308B7003208B60064
:100850003108B5003008B400BB01BA01B9010A3053
:10086000B80014237A08B3007908B2007808B10000
:100870007708B000AE0BBE2B8A110A12C22C84017D
:1008800083131F30830583161F149F141F159F1198
:1008900007309C001F109F141F159F151F138312F4
:1008A0001F179F1783169F1783121F147F2800306E
:1008B000F8001F08C73978049F001430B5001920CC
:1008C0001F151F19612C83161E088312A1001E0814
:1008D000A2002208A8002108A700AF28B701B6018E
:1008E0002030B5008130B4007A08BB007908BA0026
:1008F0007808B9007708B800CE207708A7007808F4
:10090000A8007908A9007A08AA00AE007908AD000D
:100910007808AC007708AB00B201B101B0018930B2
:10092000AF0043297A08A6007908A5007808A4003A
:100930007708A3000C3003178D0000308F000310E0
:1009400005300313A7004422023084002208A800C7
:100950002108A700922A113003178D0000308F0064
:10096000031009300313A7004422893084002608AD
:10097000AA002508A9002408A8002308A70005301C
:10098000AB00562B7630B4000F226430B50019202E
:04099000572C63007D
:02400E00323F3F
:00000001FF
;PIC16F877A
;CRC=E140  CREATED="12-jul-12 21:47"
