:1000000003308A007C2B00000A108A100A11820734
:1000100028340C34013406340C2AE9326D38EF1ED2
:10002000251ACC3AED3900000C2AE536F037F234C7
:10003000FA30F21F3F000A10A02DD3245D102010CB
:10004000A02DCE275D1020000C10A024CE24C324A8
:1000500041224F172E17211020000C1020102010C5
:10006000202349272010A010201020000C10201061
:10007000C320CE2145264122CF10201020000C2A7B
:10008000E9326D38EF1E251ACC3AED3900010C2A01
:10009000E9326D38EF1E251ACC3AED3900010C2AF1
:1000A000E9326D38EF1E251ACC3AED3900000C2AE2
:1000B000E9326D38EF1E251ACC3AED3900010C2AD1
:1000C000E9326D38EF1E251ACC3AED3900010C2AC1
:1000D000E9326D38EF1E251ACC3AED3900002D308B
:1000E000840083130008031982280630F800F70102
:1000F000F70B7828F80B77287B30F700F70B7E2872
:10010000800B75280800340EF039F7000F30080511
:1001100077048800000008140330F700F70B8E28DE
:10012000081008000808F700080E0F39F80008004A
:1001300088100F3083160805F038880083120815E0
:1001400000000814000092207808B4000810000095
:100150000814AA28AB28000092207808B3000810E1
:100160000F308316080588008312340EF700F03034
:10017000F70577083304F8007808B300B31B992813
:10018000311C881031188814000008110000081074
:10019000320EB3000F30B3053308B40083203208A9
:1001A0000F39B300B400832008000F308316080510
:1001B0008800081088100811831288100811081090
:1001C0000F30AD006F200130A2002208033C031C59
:1001D000F1280330B40083200530AD006F20A20A5F
:1001E000E5280230B4008320A2012208033C031C4E
:1001F000022922080420A300B1012308B20098209C
:10020000A20AF5288A110A128D2B2C080C3A031920
:100210001029063A03191829023A03192E293329FD
:10022000B1010130B20098200230AD006F203929B1
:100230000130AD000230AE002E0B1F2922294030C4
:10024000AF002329AF0101302D02AF072F088038FE
:10025000B000B1013008B20098203929B101103046
:10026000B200982039290130B1002C08B200982042
:1002700039290800831603178C170C14000000009E
:100280000318692983120C087F390313A40003178C
:100290000D080313A50003170F080313A600240875
:1002A000AC000521250803178D000313260803174A
:1002B0008F0083168C170C140000000083120313A8
:1002C000A30B6329662983160317692987298316D7
:1002D000031783120C0D0E0D7F390313A4000317AF
:1002E0000D080313A50003170F080313A600240825
:1002F000AC000521250803178D00031326080317FA
:100300008F008D0A03198F0A0313A30B3A290800E3
:10031000AB010408AA002B10831B2B14240EF03809
:10032000A600A607E23EA700323EA90024080F3926
:10033000A707A707A907E93EA800A807A807230E53
:100340000F39A807A907A80DA90DA909A90D230808
:100350000F39A907A60D0730A5000A30A907A80381
:10036000031CAE29A807A703031CB229A707A603ED
:10037000031CB629A607A503031CBA29253084004F
:10038000831307302A052A1384072930040203192E
:100390002A170008F700031DD5292A1BD5292A1A78
:1003A000E729AA19D5292030D829AA152A123030D0
:1003B000F707A4010408A3002410831B2414770862
:1003C000AC00052123088400831324188317840AB2
:1003D0002A1FC5290800A201831606148312061CD1
:1003E000612A2108133C031C612A031DFB292008F4
:1003F000873C031C612A2208093C031C1F2AA20A0D
:10040000A00A0319A10A3F3003178D0000308F00A6
:10041000031008300313A3003A210130840021089F
:10042000A4002008A30088216D30AC0005217330A2
:10043000AC000521C830AD006F20EC29FB29220853
:10044000313C031C432AA20AA00A0319A10A47301F
:1004500003178D0000308F00031008300313A30032
:100460003A21013084002108A4002008A30088213B
:100470006D30AC0005217330AC0005216430AD0057
:100480006F20EC291F2AA00A0319A10A4F30031775
:100490008D0000308F00031008300313A3003A21B1
:1004A000013084002108A4002008A30088216D30B9
:1004B000AC0005217330AC0005210A30AD006F207F
:1004C000EC298A110A12922BA20183168614831238
:1004D000861CDA2AA108031D712A2008323C031861
:1004E000DA2A2208093C031C962AA20A20080319CA
:1004F000A103A003573003178D0000308F000310B5
:1005000008300313A3003A21013084002108A4001D
:100510002008A30088216D30AC0005217330AC00A9
:100520000521C830AD006F20652A712A2208313CB0
:10053000031CBB2AA20A20080319A103A0035F30F1
:1005400003178D0000308F00031008300313A30041
:100550003A21013084002108A4002008A30088214A
:100560006D30AC0005217330AC0005216430AD0066
:100570006F20652A962A20080319A103A00367307B
:1005800003178D0000308F00031008300313A30001
:100590003A21013084002108A4002008A30088210A
:1005A0006D30AC0005217330AC0005210A30AD0080
:1005B0006F20652A8A110A12972B831603178C174E
:1005C0000C140000000083120C087F390319212B42
:1005D0000313A40003170D080313A50003170F0846
:1005E0000313A6002408AC000521250803178D007D
:1005F0000313260803178F0083168C170C140000B2
:10060000000083120C0D0E0D7F390319212B0313EB
:10061000A40003170D080313A50003170F08031305
:10062000A6002408AC000521250803178D0003133C
:10063000260803178F008D0A03198F0A0313DD2A7A
:10064000031703130800143003178D0000308F00C8
:100650000313DD221B3003178D0000308F000313BE
:10066000DD223230AD006F20831686148312861C83
:10067000642B243003178D0000308F000313DD221C
:1006800083168613831286172308A400A40AA403E2
:1006900003194E2BFF30AD006F20472B2208AD0011
:1006A0006F2083168613831286132D3003178D0057
:1006B00000308F000313DD220230A400FA30AD00B9
:1006C0006F20A40B5E2B792B831606148312061C55
:1006D000782B363003178D0000308F000313DD2296
:1006E0000230A400FA30AD006F20A40B722B792BDE
:1006F000232B8A110A12A12B840183131F30830537
:100700000130A100F430A00083161F149F141F15A0
:100710009F1107309C008312D5288316061483127C
:100720000618EB298316861483128618642A83160A
:1007300006158312061DA12B2108A3002008A20084
:10074000232B0C3003178D0000308F00031008306E
:100750000313A3003A21013084002108A4002008DB
:10076000A30088216D30AC0005217330AC00052159
:0A0770006430AD006F208D2B630094
:02400E00323F3F
:00000001FF
;PIC16F877A
;CRC=4549  CREATED="13-jul-12 01:23"
