:020000040000FA
:1000000083EF04F0F76A140FF66E000EF722090072
:10001000F5501200280C0106F76A280FF66E000E44
:10002000F7220900F55012000C56203D2025312EF4
:1000300034665600F76A440FF66E000EF722090088
:10004000F55012000A52203D2025312E34666F688B
:100050006D00EA6A230EE96EEF500EE0010E016EAC
:10006000006A002EFED7012EFBD74A0E006E002E2E
:10007000FED700D0EF2EF2D7000C2A38F00B006E1E
:100080000F0E81140010816E0000818000D08190DD
:10009000000CF00E936E8184000081800000813896
:1000A0000F0B2A6E819000008180000081380F0BB9
:1000B000296E8190000E936E2A38006EF00E0016A5
:1000C00000502910016E67EF00F08192E2D701C065
:1000D00029F001BEFBD727A0819227B081820000C2
:1000E0008194000081902838296E0F0E291629C0AE
:1000F0002AF0C3DF28500F0B296E2A6EBEDF000CDA
:10010000000E936E8192819481900F0E236EA1DF79
:10011000010E146E1450030808E3030E2A6EADDFBF
:10012000050E236E96DF142AF5D7020E2A6EA5DF80
:10013000146A145003080EE3036A1450F2CF15F04A
:10014000F29E60DF15BEF28E166E276A286EBDDF46
:10015000142AEFD79EEF04F014501602F3CF01F0EB
:10016000F4CF00F01702F350002615501602F3509A
:100170000020026EB2EF04F08E0E006E17C001F088
:1001800016C002F0036A015209E102C001F0026ADE
:10019000080E005E015202E1006A08D0D89001BE4C
:1001A00004D0023601360006F9D7019EBBEF04F0F9
:1001B0001850D8B4A5D0246E1C50D8B4A1D0245E59
:1001C00005E37F0E2426D8B09BD006D0810E245E96
:1001D000D8A096D0D8B494D024C000F0016A026AA6
:1001E000036A236A19C022F0228E1AC021F01BC0B4
:1001F00020F0190E246E1F50205E0DE2010E215ECC
:100200000AE2225E08E2235E06E2232A222A212A4B
:100210001F50202628D01E50215E12E2010E225EC1
:100220000FE2235E0DE2232A222A1E5021261F50B0
:10023000202619E3212A17E1222A15E1232A13D0C7
:100240001D508009225E0EE2010E235E0BE2232A7E
:100250001D50800922261E502126E9E3222AE7E1CB
:10026000232AE5D70380242E01D00BD0D890203646
:10027000213622362336D89003360236013625360B
:10028000BAD725A006D0D8900132023203322532E7
:1002900002D0000635E025BE1ED0D890203621368B
:1002A000223623361F50205E07E2010E215E04E253
:1002B000225E02E2235E1AE31E50215E05E2010E79
:1002C000225E02E2235E12E31D508009225E03E2F9
:1002D000010E235E0BE3032A09E1022A07E1012A4A
:1002E00005E1002A0DE001320232033219C024F088
:1002F0001D50241A24AE02D0018E06D0019E04D0D7
:10030000006A016A026A036A000C2250D8B471D0F4
:10031000006E2650D8B46DD0002604E3810E00266E
:1003200068E204D07F0E005E64E363E023C02AF03D
:1003300027502A1A238E278E25502902F4CF2CF01D
:1003400024502802F4CF03F0F3CF2BF02902F3500E
:100350002C26F4502B22000E032225502802F350A5
:100360002C26F4502B22000E026A03220222235074
:100370002902F3502B26F4500322000E02222350B0
:100380002802F3500326F4500222000E016A0122D3
:1003900025502702F3502B26F4500322000E022290
:1003A000012224502702F3500326F4500222000EAB
:1003B000012223502702F3500226F4500122002A82
:1003C00001BE05D02B360336023601360006000E7C
:1003D0002BAE0AD0032A02220122015005E102506D
:1003E00003E1035001E1002A2ABE018E2AAE019EDC
:1003F00004D0006A016A026A036A000C800ED8B257
:100400001D1A226A236A19C021F01D50211A1850A2
:10041000D8B4DCD0206E006E1C50D8B4E0D0205E82
:10042000D8B481D03DE31DC026F0268E1EC025F035
:100430001FC024F0236AD89026322532243223327A
:10044000202EF8D721AE03D02280DDD0229020903C
:100450002288EA6A1B0EE96EE9D0229821BE0AD0F2
:1004600020A013D02632253224322332002AD8B4D9
:10047000C5D00BD026BE0CD0D890233624362536D6
:1004800026360006D8B4BAD0F5D7228C6BD0229C81
:1004900019C021F019AE02D0268EA9D0269EA7D071
:1004A0001CC020F01CC000F01850205E19C026F0BF
:1004B000268E1AC025F01BC024F0236AD89026325D
:1004C000253224322332202EF8D721AE03D02282C7
:1004D0009AD022922090228AEA6A1F0EE96EA6D054
:1004E000229A21BE0AD020A013D0263225322432EF
:1004F0002332002AD8B482D00BD026BE0CD0D8909C
:1005000023362436253626360006D8B477D0F5D7DC
:10051000228E28D0229E1DC021F01DAE02D0268E34
:1005200066D0269E64D01DC026F0268E1EC025F003
:100530001FC024F021AE04D0269E228464D02294D1
:10054000236A2090EA6A1B0EE96E70D021BE1CD08F
:1005500019C021F020A006D02632253224322332C1
:10056000002A4CE023AE0BD0242A09E1252A07E11A
:10057000262A05E1263225322432002A3FE022BC19
:1005800086D722BEC7D71CD0800E261A26AE04D02E
:100590003AD01DC021F00AD019C021F0265206E140
:1005A000255204E1245202E1006A21D026BE08D07F
:1005B000D8902336243625362636002EF7D71ED07F
:1005C00021AE02D0268E13D0269E11D01CC000F082
:1005D0001DC026F01EC025F01FC024F008D018C092
:1005E00000F019C026F01AC025F01BC024F026C068
:1005F00001F025C002F024C003F034D0006A016A83
:10060000026A036A2FD0236A241E251E261E231E7B
:10061000232A05E1242A03E1252A01E1262A22B022
:1006200015D722B256D722B48AD7B3D7EF50242693
:1006300005E3252A03E1262AD8B42080ED52EF50A5
:10064000252603E3262AD8B42080ED52EF50EFBED2
:1006500001D0800A2626D8B0208022B8FED622BA41
:100660003FD774D70FEF05F0242C01D003D0400EF4
:10067000256E01D0256A010E235C252625508009B0
:10068000266E276A286E21DD66EF03F022500C0AE1
:1006900005E0060A0BE0020A0EE012D0276A010EFE
:1006A000286E13DD020E236ED4DC10D0010E236EF3
:1006B000020E246ED9D7276A100E286E06DD06D0EA
:1006C000010E276E22C028F000DD00D0000C225061
:1006D000B608226E036A23C026F0238ED8902332F8
:1006E000243225320332023201320032222EF6D772
:1006F00026AE0BD0001E011E021E031E002AD8B417
:10070000012AD8B4022AD8B4032AEBEF03F0006A16
:10071000016A026A036A2A6A2B6A2C6A2D6A2950C6
:100720002810271026102CE0200E2E6ED89022368E
:100730002336243625362A362B362C362D362950AC
:100740002D5C08E128502C5C05E127502B5C02E170
:1007500026502A5C0FE326502A5E2750D8A0273C5B
:100760002B5E2850D8A0283C2C5E2950D8A0293CCC
:100770002D5ED88000360136023603362E2ED6D7AF
:10078000EA6A2A0EE96E000CE9501A6E19501C6EC6
:1007900019E018C025F017C024F016C023F015C0CA
:1007A00022F0296A286A200E276E820E266EADDDA1
:1007B00003C018F002C017F001C016F000C015F019
:1007C0001C2EE7D718C025F017C024F016C023F060
:1007D00015C022F07CD703C018F002C017F001C08A
:1007E00016F000C015F018AE0DD01A061A8A151EA4
:1007F000161E171E181E152AD8B4162AD8B4172A82
:10080000D8B4182A3B0E216E9A0E206ECA0E1F6EA7
:100810001E6A0A0E1C6E1950D8B41A2A18C025F088
:1008200017C024F016C023F015C022F021C029F013
:1008300020C028F01FC027F01EC026F068DF01503E
:10084000EFCF15F0ECCF16F0ECCF17F0ECCF18F09F
:1008500000520FE119281C5C0CE01A500CE00F0B41
:100860001C5C01E037E21ABE35D01ABC04D0200E61
:100870002DD0200E1A161AAA0CD01A9A1950D8A4E4
:100880001A0600501A6E2D0E226E00DF1A50006EEE
:100890001A6A19501C5C0AE100501A6E2E0E226E64
:1008A000F5DE1A50006E200E1A16000E300E1AAA2F
:1008B0000DD01A9A1950D8A41A0600501A6E2D0E8F
:1008C000226EE4DE1A50006E1A6A300E002600C056
:1008D00022F0DCDE21C025F020C024F01FC023F070
:1008E0001EC022F0296A286A276A0A0E266E0FDFC8
:1008F00003C021F002C020F001C01FF000C01EF0B4
:100900001C2E8CD7000CF86AD09EEA6AE96AC150A6
:10091000C00B0F09C16E070EB46EC080C082C084C8
:10092000C08EC280C150C00B0E09C16E000E016E98
:10093000C250C30B0110C26E80EF00F0C80E236ED0
:1009400029EC00F0C282C2B2FED7C3CF06F0C4CFFA
:1009500007F0156A050E146E07C017F006C016F0F2
:10096000ACEF00F002C015F001C014F002C017F0A7
:1009700001C016F001D403C01BF002C01AF001C080
:1009800019F000C018F01F6A1E6A1D6A890E1C6EDD
:100990000FDC03C00BF002C00AF001C009F000C078
:1009A00008F00BC025F00AC024F009C023F008C0ED
:1009B00022F0296A286A480E276E850E266EA5DC6D
:1009C00003C00FF002C00EF001C00DF000C00CF02B
:1009D000256A246A5C0E236E860E226E0BC029F0F7
:1009E0000AC028F009C027F008C026F08EDC00C03D
:1009F00014F001C015F002C016F003C017F0D88241
:100A00001B6A1A6A200E196E810E186E0BC01FF039
:100A10000AC01EF009C01DF008C01CF0EFD417C0BA
:100A20001BF016C01AF015C019F014C018F003C05E
:100A30001FF002C01EF001C01DF000C01CF0D8EC79
:100A400000F003C013F002C012F001C011F000C0AA
:100A500010F0146A14500CEC00F0142A006E226E90
:100A600015DE050E145CF6E1890EE96E0BC018F078
:100A70000AC017F009C016F008C015F0040E196E70
:100A800083DE560E226E02DE146A14501AEC00F059
:100A9000142A006E226EFADD050E145CF6E1890E52
:100AA000E96E13C018F012C017F011C016F010C094
:100AB00015F0040E196E68DE6F0E226EE7DD680E0B
:100AC000226EE4DD6D0E226EE1DDC80E236E29EC90
:060AD00000F034D7030022
:020000040030CA
:0E000000200C181E008381000FC00FE00F407F
:00000001FF
;PIC18F2550
