:1000000001308A00372900000A108A100A1182077D
:1000100028340C34013406340C10CA37F23365101E
:10002000CC3AE939A02669396137E430202D6139AD
:10003000613A65100A004535E53670366F10CC21FF
:1000400044106537A021C329A02100002830840076
:1000500083130008031939280630F800F701F70B5D
:100060002F28F80B2E287B30F700F70B3528800B54
:100070002C2808002F0EF039F7000F300805770400
:100080008800000008140330F700F70B452808101B
:1000900008000808F700080E0F39F800080088105B
:1000A0000F3083160805F038880083120815000009
:1000B0000814000049207808AF0008100000081458
:1000C00061286228000049207808AE0008100F302F
:1000D00083160805880083122F0EF700F030F7050D
:1000E00077082E04F8007808AE00AE1B50282C1CB0
:1000F00088102C18881400000811000008102D0E1C
:10010000AE000F30AE052E08AF003A202D080F3993
:10011000AE00AF003A2008000F30831608058800B3
:1001200008108810081183128810081108100F3069
:10013000A80026200130A4002408033C031CA828A2
:100140000330AF003A200530A8002620A40A9C28DE
:100150000230AF003A20A4012408033C031CB92854
:1001600024080420A500AC012508AD004F20A40AF6
:10017000AC288A110A12462927080C3A0319C72805
:10018000063A0319CF28023A0319E528EA28AC01F8
:100190000130AD004F200230A8002620F0280130A9
:1001A000A8000230A900290BD628D9284030AA007F
:1001B000DA28AA0101302802AA072A088038AB00F1
:1001C000AC012B08AD004F20F028AC011030AD0081
:1001D0004F20F0280130AC002708AD004F20F02858
:1001E0000800831603178C170C14000000008312FC
:1001F0000C087F39031935290313A40003170D08D0
:100200000313A50003170F080313A6002408A70073
:10021000BC20250803178D000313260803178F0041
:1002200083168C170C140000000083120C0D0E0DA9
:100230007F39031935290313A40003170D0803138D
:10024000A50003170F080313A6002408A700BC206D
:10025000250803178D000313260803178F008D0A46
:1002600003198F0A0313F1280317031308008401ED
:1002700083131F30830583161F149F141F159F11AE
:1002800007309C001C308312A2008C280C3003170E
:100290008D0000308F000313F1201B3003178D00F9
:1002A00000308F000313F120A30123080F3C031C2F
:1002B0006629AC012208AD004F200230A400C830EE
:1002C000A8002620A40B5F29A30A552954296300FE
:02400E00723FFF
:00000001FF
;PIC16F877A
;CRC=4D84  CREATED="20-Ene-12 19:10"
