:1000000000308A0065280000E837EC30000023301B
:1000100084008313000803191A280630F800F7013A
:10002000F70B1028F80B0F287B30F700F70B16287A
:10003000800B0D280800831603178C170C14000082
:10004000000083120C087F39031961280313A200F2
:1000500003170D080313A30003170F080313A400CD
:1000600022080C1E31289900230803178D00031362
:10007000240803178F0083168C170C14000000004F
:1000800083120C0D0E0D7F39031961280313A20092
:1000900003170D080313A30003170F080313A4008D
:1000A00022080C1E51289900230803178D00031302
:1000B000240803178F008D0A03198F0A03131B28C6
:1000C000031703138A110A12A328840183131F3014
:1000D0008305813083169900A630980090308312F2
:1000E000980083161F149F141F159F1107309C0042
:1000F00041308312A1000430A200FA30A30007208F
:10010000A20B7D28FE300C1E8328990001300C1EA6
:10011000872899000A30A300072021080C1E8E288A
:100120009900FE300C1E92289900C0300C1E9628B3
:1001300099000A30A3000720043003178D00003017
:0C0140008F0003131B28A3288D286300E8
:02400E00733FFE
:00000001FF
;PIC16F877A
;CRC=4B79  CREATED="19-Ene-12 21:26"
