:1000000003308A001F2B0000FF00030E8301A100B4
:100010000A08A0008A010408A2007708A300780853
:10002000A4007908A5007A08A600831383120B1E8A
:100030001B288B1832288C308400801E21288C1AB3
:100040003528220884002308F7002408F800250832
:10005000F9002608FA0020088A00210E8300FF0E0E
:100060007F0E09008A110A124B288A110A123F28B2
:1000700031342E3430342E344834003400348C1E65
:1000800047288C1E41281A080C1E442899008C12FF
:100090008A110A122128E010600883168700831253
:1000A00087148B108A110A1221280D05D02ACC2919
:1000B0004F10D222C324C224C427A016AD16AD16F9
:1000C000AD16AD16AD16AD16AD16AD16AD16AD1618
:1000D000AD160D050000C23CF432A01275103D10A3
:1000E0000000202B61366F39A01EA012F5060A0011
:1000F00041326439E53973103D10A53AA021EF363D
:10010000ED306E32A01EA012F5060A005B28C92150
:10011000202AD2204927452920192E185D10492967
:10012000202AD327D018B7193810D2326132653956
:100130002D22E5316F326539203B6539F3346F3755
:10014000A012F3060A00E6377210CA27D223451020
:10015000CD24D2204E224110DA20D220D422A02950
:10016000C4232D19302420145422D414A03B693AFE
:100170006810CE22C31633192028F237F437E3373C
:10018000EC060A050000623084008313000803199E
:10019000D6280630F800F701F70BCC28F80BCB284F
:1001A0007B30F700F70BD228800BC9280800831694
:1001B00003178C170C140000000003180729831282
:1001C0000C087F390313E30003170D080313E40041
:1001D00003170F080313E50063080C1EED289900B0
:1001E000640803178D000313650803178F00831637
:1001F0008C170C140000000083120313E20B01297A
:100200000429831603170729262983160317831247
:100210000C0D0E0D7F390313E30003170D080313B4
:10022000E40003170F080313E50063080C1E1629EA
:100230009900640803178D000313650803178F00E6
:100240008D0A03198F0A0313E20BD72808008316BF
:1002500003178C170C140000000083128C0803197C
:100260004B290D080313E10003170F080313E200E5
:1002700003170C0803130C1E3B2999006108031790
:100280008D000313620803178F008D0A03198F0A6C
:1002900003132729031703138A110A12A82B8316A5
:1002A00003178C170C140000000083120C087F3910
:1002B000031995290313E10003170D080313E20046
:1002C00003170F080313E30061080C1E652999004A
:1002D000620803178D000313630803178F0083164A
:1002E0008C170C140000000083120C0D0E0D7F39CA
:1002F000031995290313E10003170D080313E20006
:1003000003170F080313E30061080C1E85299900E9
:10031000620803178D000313630803178F008D0A0B
:1003200003198F0A03134F29031703130800C80189
:100330004808023C031CB1298316091089100911D1
:100340000730831289004B30E200C3208316091066
:1003500089100911831289014B30E200C320C80AB9
:1003600098298A110A12B82BC80148081F3C031C9F
:10037000C02927304807840083138001C80AB529A3
:10038000D2010800C8014808033C031CFE295C3068
:100390004807840083138001C9014908073C031CF6
:1003A000FC29480DF700F70DF70DF830F705770831
:1003B0004907273E840083130008313C031DFA29B6
:1003C0005C304807F800FA010318FA0A5C30480765
:1003D000840083130008E30054304907840083132A
:1003E00000086304E3007808840083137A188317F5
:1003F00063088000C90ACD29C80AC3298A110A12D4
:10040000C92B6508F80164020318092A6408F7007B
:10041000152AF7010830E600E40DF70D65087702AC
:100420000318F700F80DE60B0C2A0800780862089C
:10043000E4006430E50001227708E20078083030FB
:10044000031D292AE31C312AE319312A631A2030BB
:100450002C2AE31163126314F80778080C1E2E2A65
:1004600099006208E4000A30E50001227708E20002
:1004700078083030031D422AE319472A631C472AB3
:10048000631A2030F80778080C1E442A990030308F
:10049000E20762080C1E4A2A99000800553003172B
:1004A0008D0000308F0003134F21C8014808033C22
:1004B000031CF52A01304807E1006B3003178D005B
:1004C00000308F00031005300313E200D7206108CD
:1004D000E2001B30E300162220300C1E6D2A99002A
:1004E0003D300C1E712A990020300C1E752A99008F
:1004F000CA014A08013C031CD62A4A0B8A2A013049
:100500004807E100E2001130E300162220300C1E03
:10051000872A9900C9014908073C031CC92A4A08CF
:100520000319962A013A0319A92AC72A480DF70088
:10053000F70DF70DF830F70577084907013EE100A0
:10054000E2001130E300162220300C1EA52A99008B
:10055000C72A480DF700F70DF70DF830F7057708B3
:100560004907273E840083130008E1000130E200C0
:1005700020300C1EB92A9900E20BB82A61080C1E23
:10058000BF2A990020300C1EC32A9900C72AC90A25
:100590008B2ACA08031DD42A0D300C1ECD2A9900BF
:1005A0000A300C1ED12A9900CA0A792A5C30480701
:1005B000840083130008E100713003178D000030C0
:1005C0008F00031009300313E200D7206108E20016
:1005D0001B30E30016220D300C1EEC2A99000A3065
:1005E0000C1EF02A9900C80A562A783003178D008D
:1005F00000308F0003100A300313E200D7205C089C
:10060000E2001B30E30016227E3003178D0000301D
:100610008F0003100B300313E200D7205E08E200C6
:100620001B30E30016220D300C1E142B99000A30EB
:100630000C1E182B9900D2018A110A12CA2B8401B0
:1006400083131F308305813083169900A6309800EC
:100650009030831298004710C710CB01D201471188
:1006600083161F149F141F159F1107309C00013023
:100670008312D4000230D5000430D6000830D700F1
:100680001030D8002030D9004030DA008030DB0054
:10069000DC01DD01DE01DF01FF30E00083161F1405
:1006A0009F141F159F1183121F10940183160912A6
:1006B0000108C03900388100640085308312900041
:1006C0000030F800920000308316920007309C0042
:1006D000050885001030F700F70B6C2B00001C0894
:1006E00083120D1383169D0181170108C039063846
:1006F000810001308600803087008312E00083167D
:100700000910891009110910891009118312890132
:100710000230E100FA30E200C320E10B8A2B0D30F9
:100720000C1E902B99000A300C1E942B99008630D9
:1007300003178D0000308F00031035300313E200E3
:10074000D720383003178D0000308F00031327297E
:100750000D300C1EA92B99000A300C1EAD2B9900F0
:10076000A33003178D0000308F0003134F2197290A
:100770008316011383124710C7104711B421831643
:100780008C1683120B16C0308B04471DCB2B4711E0
:0A079000C2294E2AB421C52B6300D4
:02400E00723FFF
:00000001FF
;PIC16F877A
;CRC=2A82  CREATED="04-Feb-12 11:52"
