:1000000002308A00AE2A0000FF00030E8301A10027
:100010000A08A0008A010408A2007708A300780853
:10002000A4007908A5007A08A600831383120B1E8A
:100030001B288B1832288C308400801E21288C1AB3
:100040003528220884002308F7002408F800250832
:10005000F9002608FA0020088A00210E8300FF0E0E
:100060007F0E09008A110A124B288A110A123F28B2
:1000700031342E3430342E344834003400348C1E65
:1000800047288C1E41281A080C1E442899008C12FF
:100090008A110A1221280F08FA000E08F7000F082B
:1000A0007A02031D4B2877088316EA007A08EB00D2
:1000B0000310680D273E84008313840A6B088000B8
:1000C00084036A0880006808273C031D68287B15A4
:1000D000E80A83128B108A110A1221280D05D02AF2
:1000E000CC294F10D222C324C224C427A016AD1697
:1000F000AD16AD16AD16AD16AD16AD16AD16AD16E8
:10010000AD16AD160D050000C23CF432A0127510FC
:100110003D100000202B61366F39A01EA012F5069D
:100120000A0041326439E53973103D10A53AA02127
:10013000EF36ED306E32A01EA012F5060A005B28E5
:10014000C921202AD2204927452920192E185D10BF
:100150004929202AD327D018B7193810D232613252
:1001600065392D22E5316F326539203B6539F3342D
:100170006F37A012F3060A00E6377210CA27D2239F
:100180004510CD24D2204E224110DA20D220D42294
:10019000A029C4232D19302420145422D414A03BA8
:1001A000693A6810CE22C31633192028F237F43783
:1001B000E337EC060A050001C420D4275310C422FB
:1001C0004C105429CD182010C23C2010CA37F233ED
:1001D0006510CD34F2306E326110DA30F230F43224
:1001E00000012027F5366539EF1EA53A202A4D2952
:1001F0003110BD12CC3AAD16AD162D2269336539DA
:100200006537E3346110CC32633A75396110D42616
:10021000D218BD12CC3A0D0500002330840083179C
:100220000008031920290630F800F701F70B1629FA
:10023000F80B15297B30F700F70B1C29800B1329CD
:100240000800831603178C170C1400000000031815
:10025000482983120C087F39A7000D08A8000F0851
:10026000A900270803130C1E332999000317280837
:100270008D0029088F0083168C170C1400000000D5
:100280008312A60B4429462983164829632983161D
:1002900083120C0D0E0D7F39A7000D08A8000F0862
:1002A000A900270803130C1E5329990003172808D7
:1002B0008D0029088F008D0A03198F0AA60B61296A
:1002C00063290313212903130800831603178C17CE
:1002D0000C140000000083128C08031983290D08F8
:1002E000A2000F08A3000C0803130C1E7529990027
:1002F000031722088D0023088F008D0A03198F0A27
:1003000003136529031703138A110A12432B83165B
:1003100003178C170C140000000083120C087F399F
:100320000319C129A2000D08A3000F08A400220888
:1003300003130C1E99299900031723088D00240824
:100340008F0083168C170C140000000083120C0D14
:100350000E0D7F390319C129A2000D08A3000F0853
:10036000A400220803130C1EB329990003172308C5
:100370008D0024088F008D0A03198F0A0313872923
:10038000031703130800FC017C08023C031CE1294D
:1003900083160910891009110730831289004B3028
:1003A0000317A30003130D218316091089100911E7
:1003B000831289014B300317A30003130D21FC0A9C
:1003C000C4298A110A12532BFC017C081F3C031C10
:1003D000F029C8307C07840083138001FC0AE529DA
:1003E0000317920103138A110A125A2B03172908C3
:1003F000F80128020318FF292808F7000B2AF70143
:100400000830AA00A80DF70D290877020318F70095
:10041000F80DAA0B022A0313080078080317260810
:10042000A8006430A9000313F62177080317A6007B
:1004300078083030031D232AA71C2D2AA7192D2A3E
:10044000271A2030262AA71127122714F807780820
:1004500003130C1E292A990003172608A8000A3046
:10046000A9000313F62177080317A6007808303097
:10047000031D402AA719472A271C472A271A20307C
:10048000F807780803130C1E432A9900031730302D
:10049000A607260803130C1E4B2A99008A110A127C
:1004A000CC2B0317AE010408AD002E10831B2E14B5
:1004B000270EF038A900A907E23EAA00323EAC00A0
:1004C00027080F39AA07AA07AC07E93EAB00AB071C
:1004D000AB07260E0F39AB07AC07AB0DAC0DAC0963
:1004E000AC0D26080F39AC07A90D0730A8000A305B
:1004F000AC07AB03031C782AAB07AA03031C7C2AB6
:10050000AA07A903031C802AA907A803031C842A9D
:1005100028308400831707302D052D1384072C30D5
:10052000040203192D170008F700031D9F2A2D1B35
:100530009F2A2D1AA92AAD199F2A2030A22AAD156B
:100540002D123030F707770803130C1EA52A9900E7
:100550000317840A2D1F8F2A0313080084018313B5
:100560001F308305813083169900A63098009030A3
:10057000831298007B10FB108316E9018312031786
:1005800092017B11831603131F149F141F159F11D3
:1005900007309C000130831203179400023095004D
:1005A00004309600083097001030980020309900F1
:1005B00040309A0080309B009C019D019E019F016C
:1005C000FF30A000831603131F149F141F159F11E3
:1005D00083121F109401831609120108C0390038D4
:1005E00081006400B530831290000030F800920062
:1005F00000308316920007309C00050885001030FB
:10060000F700F70B012B00001C0883120D13831653
:100610009D0181170108C03906388100013086002C
:100620008030870083120317A0008316031309107C
:1006300089100911091089100911831289010230EA
:100640000317A200FA30A30003130D210317A20B16
:10065000222B0D3003130C1E2B2B99000A300C1E7D
:100660002F2B99009F3003178D0000308F0003104F
:100670003530A60003132121383003178D000030D8
:100680008F00031365290D300C1E442B99000A308E
:100690000C1E482B9900BC3003178D0000308F00D2
:1006A00003138721C329831601137B10FB107B11D1
:1006B0008312E42983168C1683120B16C0308B0428
:1006C0000317A1012108273C031C712B0310210DE6
:1006D000273E84008313840A800184038001A10AD9
:1006E000622B83160313E9017B1D002C83120B126E
:1006F000DC3003178D0000308F00031387217B113E
:1007000001308316E9006908273C031CFD2B031008
:10071000690D273E84008313840A0008831203179F
:10072000A30084030008A200031083160313690DBD
:10073000273E84008313840A000883120317A50050
:1007400084030008A4000130831603136902F70034
:100750000310F70D7708273E84008313840A0008EE
:10076000FA008403000883120317A4027A08031C0A
:100770007A0FA502F1308D0000308F000310083091
:10078000A600031321218316690883120317A6000C
:100790001B30A70003130D2AF63003178D0000301D
:1007A0008F0003100730A6000313212110308400AE
:1007B00003172308A7002208A60003135122FB30C9
:1007C00003178D0000308F0003101D30A6000313A7
:1007D00021211030840003172508A7002408A60053
:1007E000031351220D300C1EF32B99000A300C1EFE
:1007F000F72B99008316E90A832B83120B168316B5
:04080000742B6300F2
:02400E00723FFF
:00000001FF
;PIC16F877A
;CRC=9E6D  CREATED="21-Ene-12 17:20"
