:020000040000FA
:0400000094EF08F081
:08000800056ED8CF06F0E0CF31
:1000100007F00001E9CF0DF0EACF08F0E1CF09F0D9
:10002000E2CF0AF0D9CF0BF0DACF0CF0F3CF14F017
:10003000F4CF15F0FACF16F000C00FF001C010F0A9
:1000400002C011F003C012F004C013F0A0AA2CEFFC
:1000500000F0A1BA03EF07F00FC000F010C001F0EC
:1000600011C002F012C003F013C004F00E8E0DC0D8
:10007000E9FF08C0EAFF09C0E1FF0AC0E2FF0BC0C8
:10008000D9FF0CC0DAFF14C0F3FF15C0F4FF16C08F
:10009000FAFF055007C0E0FF06C0D8FF1000F76A5E
:1000A000AE0FF66E000EF7220900F55012000403A1
:1000B0000100000000000000000000000000F76ADE
:1000C000CE0FF66E000EF7220900F5501200040064
:1000D0000100000000000000000000000000F76ABE
:1000E000EE0FF66E000EF7220900F55012004000E8
:1000F00008004000000000000000000000000000B8
:1001000000000000000000000000000000000DAE34
:1001100003D0F2CF0EF0F29EF76A300FF66E010EAA
:10012000F7220900F5500DAE02D00EBEF28E12007D
:10013000400000004000000000000000000000003F
:1001400000000000000000000000000000000000AF
:10015000F76A600FF66E010EF7220900F5501200E3
:1001600009024300020100C032090400000102023A
:1001700001000524001001042402020524060001E8
:100180000524010001070581030800FA09040100A4
:10019000020A000000070502024000FA0705820279
:1001A0004000FA00F76AB40FF66E010EF72209005C
:1001B000F55012000200F76AC60FF66E010EF72224
:1001C0000900F55012001201100102000040D8048D
:1001D0000B00000101020001F76AE80FF66E010E44
:1001E000F7220900F5501200040309040803430034
:1001F000430053001E034A006F0072006700650051
:1002000050004900430020002A00550053004200DE
:100210002A00F2CF0EF0F29EF76A2C0FF66E020E55
:10022000F7220900F5500EBEF28E1200280C0106CE
:10023000F2CF0EF0F29EF76A4A0FF66E020EF72228
:100240000900F5500EBEF28E12007A00F2CF0EF0C9
:10025000F29EF76A660FF66E020EF7220900F5505D
:100260000EBEF28E120050696355736228464953E0
:1002700020554E4350290A006D92699468940EEF00
:1002800007F06A6A689217EF07F02C6A2B6A250E4E
:100290002A6E800E296E2D6A2E6A080E2F6E7F6BD5
:1002A0007A93316A306A7B6B7C917A81000C9E6B09
:1002B0009E5101080AE3036A9E51270FE96E000E62
:1002C0000320EA6EEF6A9E2BF3D7DFDF1A6A010E76
:1002D0001B6E196A000C010EA76FA7510F080EE3E1
:1002E000700EA725016E0F0E036ED8B0032A01C051
:1002F000E9FF03C0EAFFEF6AA72BEFD71E6A1D6A6A
:10030000000C400E0401016F050E036F026B880E96
:10031000006F046B050E076F400E066F0001000CA6
:100320006A6A686A9F0E6B6E390E696E6E6ABFDF0D
:10033000D2DF160E706E68A602D06896FCD76D9854
:10034000E0DF030E1F6E1DEF07F0698468986D8271
:1003500023EF07F0689C29EF07F070A002D0D1DFEF
:100360007090689A2FEF07F0A2C020F0000CFF0EEB
:10037000206E000CA06B265235E0A0513F0832E3FE
:100380001C5005E0020A0DE0010A15E01ED0036AC8
:100390002550F2CFA2F0F29EDBDEA2BFF28EA16F5B
:1003A00014D0036A2550F2CFA2F0F29E15DFA2BF4F
:1003B000F28EA16F0AD0036A2550F2CFA2F0F29E0E
:1003C000FADEA2BFF28EA16F00D0252A2606A05128
:1003D000A02B036A400FE96E050E0320EA6EA1C050
:1003E000EFFFC9D7265204E1A051400801E0196A85
:1003F000A0C0A2F0B9DF000C256A1C6A05010351F8
:10040000010A000105E0030A08E0010A09E01FD023
:10041000120E266E030E1C6E1CD0430E266E19D0D3
:10042000020E1C6E036A05010251210FE96E000ED7
:100430000320EA6EEFCF25F0036A2550F2CF9FF03C
:10044000F29E0001C9DE9FBFF28E266E02D08FDFC2
:100450000CD00501075305E12650065D02E206C5F2
:1004600026F0010E196E000185DF4FEF03F09F5358
:1004700004E1040E1F6E2FDFC1D0050E1F6EA26FA8
:10048000800EA16F010EA06FA0510F08D8A0B6D0AA
:10049000A36B036AA051F2CFA7F0F29E10DEA7BFB4
:1004A000F28E000A51E0040EA36FD890A035036AC3
:1004B000F2CFA7F0F29E2BDE0900F5CF03F0A7BF25
:1004C000F28EA46F03C0A5F0A051080DF350010FE8
:1004D000016E040E036ED8B0032A01C0E9FF03C009
:1004E000EAFFA4C0EFFFA051080DF350020F016E08
:1004F000040E036ED8B0032A01C0E9FF03C0EAFF6F
:10050000A2C0ECFFED52A1C0EFFFD890A035036A66
:10051000F2CFA7F0F29EFBDD0900F5CF03F0A7BFF5
:10052000F28EA1270350A223880EA66FA5B1A68143
:10053000A5B3A683A051080DF3CF01F0040E01C0AE
:10054000E9FFEA6EA6C0EFFF036AA051F2CFA7F061
:10055000F29EA5DDA7BFF28E000A31E0A383A05171
:10056000080DF350060F016E040E036ED8B0032A77
:1005700001C0E9FF03C0EAFFA2C0ECFFED52A1C039
:10058000EFFFD890A035036AF2CFA7F0F29EA7DD67
:100590000900F5CF03F0A7BFF28EA1270350A223D5
:1005A000A051080DF350040F016E040E036ED8B075
:1005B000032A01C0E9FF03C0EAFF400EEF6EA3511A
:1005C000060802E10E0EA36F036AA051F2CFA7F056
:1005D000F29E65DDA7BFF28E020801E0A389700ECE
:1005E000A025016E0F0E036ED8B0032A01C0E9FFEB
:1005F00003C0EAFFA3C0EFFFA02B46D749EF03F0EB
:100600000501015100010DE0010A14E0020A1EE09B
:10061000060A27E0030A2CE00E0A2BE0010A2FE06D
:100620003CD01BC040F50501416B020E0001A26FDA
:100630009BDE35D00501022D06D0010E1B160001F0
:10064000A26B92DE02D0000192DE29D00501022DBC
:1006500005D01B820001A26B87DE02D0000187DE7D
:100660001ED0020E196E02C524F0A26B7DDE17D0DB
:10067000C3D61AC040F5010EA26F76DE10D0050178
:100680000251010808E302C51AF002C59FF00001FB
:10069000EED6A26B69DE000102D069DE00D0C7EFA2
:1006A00004F01AC09FF005010151000105E00A0A9B
:1006B0000BE0010A2BE03CD00501406B416B020EC0
:1006C0000001A26F51DE36D09F531EE0010E9F5DE8
:1006D000036AF2CFA1F0F29E65DDA1BFF28E016E3A
:1006E0000501045DD8A002D000010ED0036A0451B8
:1006F000270FE96E000E0320EA6EEFCF40F5010EE2
:100700000001A26F31DE01D032DE14D09F530EE023
:10071000036A05010451270FE96E000E0320EA6EFB
:1007200002C5EFFF0001A26B1FDE01D020DE02D068
:100730001EDE00D0C7EF04F0A0919FBFA0819F9F55
:10074000A0A110D0036A9F51F2CFA1F0F29EA7DCC6
:10075000A1BFF28E000A02E1000E01D0010E016E6F
:1007600010D00FD0036A9F51F2CFA1F0F29EA7DC08
:10077000A1BFF28E000A02E1000E01D0010E016E4F
:1007800000D033EF04F0A0919FBFA0819F9FA0A154
:1007900010D09F51080DF350040F016E040E036E2C
:1007A000D8B0032A01C0E9FF03C0EAFF880EEF6E4C
:1007B00009D09F51080DF3CF01F0040E01C0E9FFED
:1007C000EA6EEF6A42EF04F0A0919FBFA0819F9F65
:1007D000A0A110D09F51080DF350040F016E040E1C
:1007E000036ED8B0032A01C0E9FF03C0EAFF840EFC
:1007F000EF6E0AD09F51080DF3CF01F0040E01C037
:10080000E9FFEA6E840EEF6E48EF04F0A0919FBFFF
:10081000A0819F9FA0A110D09F51080DF350040FFD
:10082000016E040E036ED8B0032A01C0E9FF03C0B5
:10083000EAFFEFCFA1F00AD09F51080DF3CF01F0EE
:10084000040E01C0E9FFEA6EEFCFA1F0A1AF02D024
:10085000A1B502D0000E01D0010E016E52EF04F0DE
:1008600004C59FF069D7015229E005010151010A31
:10087000000105E0020A09E0030A0DE01DD004C5ED
:100880009FF081D7A26B70DD19D004C59FF09CD773
:10089000A26B6ADD13D00501406B416B04C59FF06C
:1008A0000001B4D7015204E0010E0501406F0001C0
:1008B000020EA26F59DD02D05ADD00D0C7EF04F05E
:1008C000FE0E206E000C0501042D01D002D0045351
:1008D00048E1015100010BE0010A0DE0210A1CE092
:1008E000010A1FE0030A2EE0010A31E037D0010EB1
:1008F000806FE6DF35D0050EEA6E400EE96EE26AE3
:10090000320EE16E080E016EE6CFEEFF012EFCD72F
:1009100006C5A2F029DD24D0020E806F7A83D0DFD5
:100920001FD0050EEA6E400EE96EE26A290EE16EF6
:10093000070E016EE6CFEEFF012EFCD7070EA26F69
:1009400013DD0ED002C57FF0A26B0EDD09D002C50B
:1009500031F003C530F0A26B07DD02D008DD00D016
:1009600005010001C7EF04F0196A050100517F0B72
:10097000000107E0010A06E0030A05E0230A04E09B
:1009800004D03ED68ED66CD79ED7F1DC00D0AEEF29
:1009900006F09F51080DF3CF01F0040E01C0E9FFEE
:1009A000EA6EEFCFA1F0A051020806E1A1AD02D09E
:1009B000A06B02D0010EA06FA051030812E1840EBB
:1009C000A16F9F51080DF350040F016E040E036ECA
:1009D000D8B0032A01C0E9FF03C0EAFF840EEF6E1E
:1009E00009D0A02D03D0C80EA16F04D0A05302E1FE
:1009F000880EA16F036A010E026E9F51006E05E022
:100A0000D89002360336002EFBD70250FF0A006E44
:100A1000FF0E031A00501D1603501E16D8909F3566
:100A2000036AF2CFA4F0F29E87EC00F00900F5CF44
:100A300003F0A4BFF28EA26F03C0A3F09F51080D74
:100A4000F350010F016E040E036ED8B0032A01C0EB
:100A5000E9FF03C0EAFFA2C0EFFFA3B1A181A3B3E6
:100A6000A1839F51080DF3CF01F0040E01C0E9FFEF
:100A7000EA6EA1C0EFFF000CAB51080DF350040F5C
:100A8000016E040E036ED8B0032A01C0E9FF03C053
:100A9000EAFFEFCFAFF0AFBF5BD0AB51080DF35023
:100AA000050F016E040E036ED8B0032A01C0E9FFE2
:100AB00003C0EAFFACC0EFFFAE51020816E1AB5134
:100AC000080DF350040F016E040E036ED8B0032A14
:100AD00001C0E9FF03C0EAFFEFCFAFF0AFAD02D036
:100AE000AE6B02D0010EAE6F13D0AE51040810E110
:100AF000AB51080DF3CF01F0040E01C0E9FFEA6E1F
:100B0000EFCFAFF0AFAD03D0010EAE6F01D0AE6B43
:100B1000AE2D03D0C80EAF6F04D0AE5302E1880EE5
:100B2000AF6FADB1AF81ADB3AF83AB51080DF35033
:100B3000040F016E040E036ED8B0032A01C0E9FF52
:100B400003C0EAFFAFC0EFFF010E016E03D000D07B
:100B5000000E016E000C8051010A03E0030A12E04E
:100B600022D0EA6A320EE96E050EE26EE16A080EE4
:100B7000016EE6CFEEFF012EFCD7A26BB4EC01F0C4
:100B8000806B15D0EA6A290EE96E050EE26EE16A05
:100B9000070E016EE6CFEEFF012EFCD7806BA26B35
:100BA000B4EC01F004D0806B81EC01F000D0F9EFDF
:100BB00005F0A051080DF350010F016E040E036EF5
:100BC000D8B0032A01C0E9FF03C0EAFF036AEFCFF0
:100BD00001F003C002F0F2EF05F07C817E6B020EA3
:100BE000A06FE7D701C07DF0FEEF05F09F5302E153
:100BF000B2D714D09F51020802E1EFD70FD0036A99
:100C0000010E026E9F51006E05E0D8900236033649
:100C1000002EFBD702501D1203501E12000CA0C064
:100C20006EFFA05303E0040E1F6E02D0020E1F6E73
:100C30001FEF06F01A6A196A24C0A0F0F0D798EFE7
:100C400006F0A051080DF350040F016E040E036E60
:100C5000D8B0032A01C0E9FF03C0EAFFEFCFA8F034
:100C6000A8BF3FD0A051080DF350060F016E040E2F
:100C7000036ED8B0032A01C0E9FF03C0EAFFECCF3E
:100C800003F0ED52EFCFA9F003C0AAF0A76BA66B5B
:100C9000A751A45D1AE303E1A351A65D16E2A1C02A
:100CA000E9FFA2C0EAFFEFCFADF0AAC0EAFFA9C0FA
:100CB000E9FFADC0EFFFA92BD8B4AA2BA12BD8B464
:100CC000A22BA62BD8B4A72BE3D7A0C0ABF0A4C00F
:100CD000ADF0A3C0ACF0A5C0AEF0CEDE015003D0A5
:100CE00000D0000E016E83EF06F07B530DE07A9189
:100CF000020EA06FA26B3A0EA16FA46B7BC0A3F093
:100D0000020EA56F9ED77B6B89EF06F07B5302E046
:100D1000ECD701D07A819DEF06F09F530AE1192CA0
:100D200003D0BAEC01F004D01950020801E182D7D7
:100D300004D09F51020801E1E9D7000C6C309E6F8E
:100D40009E339E331F0E9E176C523BE104010051EF
:100D50003C0B34081BE1046B000106D6203C05D097
:100D60009F6B030EA06F15DE0ED09F6B020EA06F5F
:100D700010DE2050FE0807E0AB6BAD6B20C0ACF07E
:100D8000040EAE6F79DE6D9819D0040100513C0B52
:100D9000040815E100019F6B29DF9F6B020EA06F15
:100DA000F8DD2050FE080AE0203C01D007D0AB6BF4
:100DB000AD6B20C0ACF0010EAE6F5EDE040120D042
:100DC00000016C50040812E1FF0E206E9F6BA5DF3E
:100DD000203C01D008D0AB6BAD6B20C0ACF0020E54
:100DE000AE6F4ADE02D081EC01F009D06CB404D0C1
:100DF0009EC09FF0FBDE03D09EC09FF08EDF0401FB
:100E0000000134EF07F01F5201E12FD068522DE0AE
:100E100068A404D069A402D03CEF01F06DA201D017
:100E200024D068A204D069A202D041EF01F068A0EA
:100E300004D069A002D090EF01F068A804D069A89E
:100E400002D0A5EF01F068AC04D069AC02D0AAEFE3
:100E500001F068AA04D069AA02D0ADEF01F068A63B
:100E600004D069A602D06AD76896A19A2CEF00F048
:100E70006D6A696A080E6F6E94503009946E1F6A2D
:100E8000186AF2BE188EF29E57EC01F018BEF28E70
:100E90001E6A1D6A000C186AF2BE188EF29E57EC8C
:100EA00001F018BEF28E6D6A140E6F6E696A6D865F
:100EB000010E1F6E62EF07F0928480A404D06DB61D
:100EC00001D0E9D703D06DA601D0D2DF1F2C0BD003
:100ED0006DBA09D0686A696AA08AC00EF212110E52
:100EE000696E020E1F6E000CC3DFE6DF1F500208A2
:100EF000FCE1D1EF08F0EA6A950EE96EEF500EE0E2
:100F00000F0E016E006A002EFED7012EFBD78F0E4A
:100F1000006E002EFED70000EF2EF2D7000C9C3999
:100F2000F00B006E0F0E81140010816E00008180A6
:100F3000070E006E002EFED700D08190000CF00E40
:100F4000936E818400008180000081380F0B9C6FBC
:100F5000819000008180030E006E002EFED700D02D
:100F600081380F0B9B6F8190000E936E9C39006E41
:100F7000F00E001600509B11016EC1EF07F0819238
:100F8000DED701C09BF001BEFBD799A1819299B138
:100F9000818200008194000081909A399B6F0F0E2E
:100FA0009B179BC09CF0BBDF9A510F0B9B6F9C6FF4
:100FB000B6DF000C000E936E8192819481900F0E2B
:100FC000956F99DF010E936F9351030808E3030EA9
:100FD0009C6FA5DF050E956F8EDF932BF5D7020E64
:100FE0009C6F9DDF936B935103080FE3036A93514A
:100FF000F2CF94F0F29E09EC01F094BFF28E956F5F
:10100000996B9A6FBCDF932BEED7D2EF08F0962D39
:1010100001D003D0400E976F01D0976B010E955D04
:10102000972797518009986F996B9A6FA8DF39EFCE
:1010300008F094510C0A05E0060A0BE0020A0EE0E3
:1010400012D0996B010E9A6F9ADF020E956F53DFE3
:1010500010D0010E956F020E966FD9D7996B100EB6
:101060009A6F8DDF06D0010E996F94C09AF087DFDA
:1010700000D0000C7CB101D0FDD77E517E2B036ADD
:10108000880FE96E050E0320EA6EEFCF93F07D51D5
:101090007E5D0BE37C91186AF2BE188EF29E020E02
:1010A0009F6FA06F76DC18BEF28E93C001F0E9EF5F
:1010B00008F093C0E9FF94C0EAFFEFCF97F096C025
:1010C00003F095C0E9FF96C0EAFFEF50975D15E188
:1010D00094C003F093C0E9FF03C0EAFFEF5203E1BD
:1010E000000E016E1FD094C003F09351932BD8B41F
:1010F000942B952BD8B4962BDCD794C003F093C0D7
:10110000E9FF94C0EAFFEFCF97F096C003F095C0D7
:10111000E9FF96C0EAFFEF50975D02E2FF0E01D0B3
:10112000010E016EF2EF08F0F86AD09E0D8EEA6AA9
:10113000E96A94928B82C150C00B0F09C16E070EF1
:10114000B46E1F6A216A040E226E0C0E236E266A8C
:101150007B6B806B816B826BEA6A920EE96EF2CFD9
:1011600093F0F29E000E18EC01F00A000900F55011
:10117000EE6E0009FBE193BFF28E8C6B8B6BC1505E
:10118000C00B0E09C16EC080C082C084C08EC280F8
:10119000000E016EC250C30B0110C26E45EC01F08F
:1011A000A3D608D7320E956FA6DE936B935126EC2B
:1011B00001F0932B006E946F3CDF110E935DF6E10E
:1011C000320E956F98DE78DE1A5222E07CA120D094
:1011D00051D701C091F0946B91C093F0966B92C07F
:1011E00095F067D701C088F088530FE10C0E946F1B
:1011F00020DF936B935126EC01F0932B006E946FDC
:1012000018DF110E935DF6E103D091C094F011DF69
:04121000DAD7030026
:020000040030CA
:0E000000240E3E1E008381000FC00FE00F4053
:00000001FF
;PIC18F2550
